{
  "contractName": "Imooc",
  "abi": [
    {
      "constant": true,
      "inputs": [],
      "name": "getCourses",
      "outputs": [
        {
          "name": "",
          "type": "uint256[]"
        }
      ],
      "payable": false,
      "stateMutability": "view",
      "type": "function"
    },
    {
      "constant": false,
      "inputs": [
        {
          "name": "_id",
          "type": "uint256"
        }
      ],
      "name": "getCourse",
      "outputs": [
        {
          "name": "",
          "type": "address"
        },
        {
          "name": "",
          "type": "string"
        },
        {
          "name": "",
          "type": "string"
        },
        {
          "name": "",
          "type": "uint256"
        },
        {
          "name": "",
          "type": "uint256"
        },
        {
          "name": "",
          "type": "uint256"
        },
        {
          "name": "",
          "type": "uint256"
        },
        {
          "name": "",
          "type": "string"
        }
      ],
      "payable": false,
      "stateMutability": "nonpayable",
      "type": "function"
    },
    {
      "constant": false,
      "inputs": [
        {
          "name": "_name",
          "type": "string"
        },
        {
          "name": "_content",
          "type": "string"
        },
        {
          "name": "_target",
          "type": "uint256"
        },
        {
          "name": "_fundingPrice",
          "type": "uint256"
        },
        {
          "name": "_price",
          "type": "uint256"
        }
      ],
      "name": "addCourse",
      "outputs": [
        {
          "name": "",
          "type": "uint256"
        }
      ],
      "payable": false,
      "stateMutability": "nonpayable",
      "type": "function"
    }
  ],
  "bytecode": "0x6080604052600060015534801561001557600080fd5b5061099f806100256000396000f300608060405260043610610057576000357c0100000000000000000000000000000000000000000000000000000000900463ffffffff1680630b91e28d1461005c5780639bb2f0de14610229578063cc1264791461030a575b600080fd5b34801561006857600080fd5b5061008760048036038101908080359060200190929190505050610376565b604051808973ffffffffffffffffffffffffffffffffffffffff1673ffffffffffffffffffffffffffffffffffffffff16815260200180602001806020018881526020018781526020018681526020018581526020018060200184810384528b818151815260200191508051906020019080838360005b838110156101195780820151818401526020810190506100fe565b50505050905090810190601f1680156101465780820380516001836020036101000a031916815260200191505b5084810383528a818151815260200191508051906020019080838360005b8381101561017f578082015181840152602081019050610164565b50505050905090810190601f1680156101ac5780820380516001836020036101000a031916815260200191505b50848103825285818151815260200191508051906020019080838360005b838110156101e55780820151818401526020810190506101ca565b50505050905090810190601f1680156102125780820380516001836020036101000a031916815260200191505b509b50505050505050505050505060405180910390f35b34801561023557600080fd5b506102f4600480360381019080803590602001908201803590602001908080601f0160208091040260200160405190810160405280939291908181526020018383808284378201915050505050509192919290803590602001908201803590602001908080601f0160208091040260200160405190810160405280939291908181526020018383808284378201915050505050509192919290803590602001909291908035906020019092919080359060200190929190505050610668565b6040518082815260200191505060405180910390f35b34801561031657600080fd5b5061031f61081a565b6040518080602001828103825283818151815260200191508051906020019060200280838360005b83811015610362578082015181840152602081019050610347565b505050509050019250505060405180910390f35b6000606080600080600080606061038b610872565b60048a81548110151561039a57fe5b906000526020600020906008020161010060405190810160405290816000820160009054906101000a900473ffffffffffffffffffffffffffffffffffffffff1673ffffffffffffffffffffffffffffffffffffffff1673ffffffffffffffffffffffffffffffffffffffff168152602001600182018054600181600116156101000203166002900480601f0160208091040260200160405190810160405280929190818152602001828054600181600116156101000203166002900480156104a45780601f10610479576101008083540402835291602001916104a4565b820191906000526020600020905b81548152906001019060200180831161048757829003601f168201915b50505050508152602001600282018054600181600116156101000203166002900480601f0160208091040260200160405190810160405280929190818152602001828054600181600116156101000203166002900480156105465780601f1061051b57610100808354040283529160200191610546565b820191906000526020600020905b81548152906001019060200180831161052957829003601f168201915b5050505050815260200160038201548152602001600482015481526020016005820154815260200160068201548152602001600782018054600181600116156101000203166002900480601f0160208091040260200160405190810160405280929190818152602001828054600181600116156101000203166002900480156106105780601f106105e557610100808354040283529160200191610610565b820191906000526020600020905b8154815290600101906020018083116105f357829003601f168201915b5050505050815250509050806000015181602001518260400151836060015184608001518560a001518660c001518760e001518696508595508090509850985098509850985098509850985050919395975091939597565b6000610672610872565b6002600154908060018154018082558091505090600182039060005260206000200160009091929091909150555060018060008282540192505081905550610100604051908101604052803373ffffffffffffffffffffffffffffffffffffffff16815260200188815260200187815260200186815260200185815260200160008152602001848152602001602060405190810160405280600081525081525090506004819080600181540180825580915050906001820390600052602060002090600802016000909192909190915060008201518160000160006101000a81548173ffffffffffffffffffffffffffffffffffffffff021916908373ffffffffffffffffffffffffffffffffffffffff16021790555060208201518160010190805190602001906107a59291906108ce565b5060408201518160020190805190602001906107c29291906108ce565b50606082015181600301556080820151816004015560a0820151816005015560c0820151816006015560e08201518160070190805190602001906108079291906108ce565b5050505060015491505095945050505050565b6060600280548060200260200160405190810160405280929190818152602001828054801561086857602002820191906000526020600020905b815481526020019060010190808311610854575b5050505050905090565b61010060405190810160405280600073ffffffffffffffffffffffffffffffffffffffff168152602001606081526020016060815260200160008152602001600081526020016000815260200160008152602001606081525090565b828054600181600116156101000203166002900490600052602060002090601f016020900481019282601f1061090f57805160ff191683800117855561093d565b8280016001018555821561093d579182015b8281111561093c578251825591602001919060010190610921565b5b50905061094a919061094e565b5090565b61097091905b8082111561096c576000816000905550600101610954565b5090565b905600a165627a7a72305820d051a3512fdfeaa62677c6996d7b94dde69d129a8e44eae766b4c6d0ee0f6ef30029",
  "source": "pragma solidity ^0.4.24;\n\ncontract Imooc {\n  address owner;\n  uint courseIndex = 0 ;\n  uint[] courseIds;\n  uint[] onlineCourseIds;\n  // mapping (uint =>Course)\n  struct Course {\n    address owner; // 课程owner\n    string name; // 课程名字\n    string content; // 课程内容介绍\n    uint target; // 课程众筹目标\n    uint fundingPrice; // 众筹价格\n    uint fundingCount; // 众筹人数\n    uint price;   // 上线价格\n    string imgHash; // 图片hash\n  }\n  Course[] courses;\n  // 获取课程\n  function getCourses() public view returns(uint[]){\n    return courseIds;\n  }\n  function getCourse(uint _id) public returns(address,string,string,uint,uint,uint,uint,string){\n    Course memory course = courses[_id];\n    return (course.owner,course.name,course.content,course.target,course.fundingPrice,course.fundingCount,course.price,course.imgHash);\n    // return courses;\n  }\n  // 新增课程\n  function addCourse(string _name, string _content, uint _target, uint _fundingPrice, uint _price) public returns(uint){\n    courseIds.push(courseIndex);\n    courseIndex+=1;\n    Course memory course = Course(msg.sender,_name,_content,_target,_fundingPrice,0,_price,\"\");\n    courses.push(course);\n    return courseIndex;\n  }\n\n  // 参与众筹\n  // function funding()\n\n  // 添加视频\n  // function addVideo()\n  // address[16] public adopters;\n\n  // function adopt(uint petId) public returns(uint){\n  //   // 断言，\n  //   require(petId>=0 && petId<16);\n  //   adopters[petId] = msg.sender;\n  //   return petId;\n  // }\n  // function getAdopters() public view returns(address[16]){\n  //   return adopters;\n  // }\n}\n\n",
  "sourcePath": "/Users/pangoo/work/woniu-pet-shop/src/truffle/contracts/Imooc.sol",
  "compiler": {
    "name": "solc",
    "version": "0.4.24+commit.e67f0147.Emscripten.clang"
  },
  "schemaVersion": "2.0.1",
  "updatedAt": "2018-11-28T19:37:31.163Z"
}